:020000040800F2
:100000005007002089010008B118000831160008C7
:10001000AD18000845020008F518000800000000AF
:10002000000000000000000000000000B9180008F7
:100030004902000800000000B5180008BD180008BB
:10004000A3010008A3010008A3010008A301000800
:10005000A3010008A30100084D020008A301000845
:10006000A3010008A3010008A3010008A3010008E0
:10007000A3010008A3010008A3010008A3010008D0
:10008000A3010008A3010008A3010008A3010008C0
:10009000A3010008A3010008A301000855020008FD
:1000A000A3010008C5180008A3010008A301000867
:1000B000E9180008A3010008A3010008A301000833
:1000C000A3010008A3010008A3010008A301000880
:1000D000A3010008A3010008A3010008A301000870
:1000E000A3010008A3010008A301000800F002F822
:1000F00000F03AF80AA090E8000C82448344AAF188
:100100000107DA4501D100F02FF8AFF2090EBAE885
:100110000F0013F0010F18BFFB1A43F0010318473B
:10012000B0260000D0260000103A24BF78C878C15D
:10013000FAD8520724BF30C830C144BF04680C60ED
:10014000704700000023002400250026103A28BF35
:1001500078C1FBD8520728BF30C148BF0B60704739
:100160001FB51FBD10B510BD00F031F81146FFF7E7
:10017000F7FF02F047F800F04FF803B4FFF7F2FF83
:1001800003BC00F057F800000948804709480047C1
:10019000FEE7FEE7FEE7FEE7FEE7FEE7FEE7FEE737
:1001A000FEE7FEE704480549054A064B7047000094
:1001B000C1180008ED000008500100205007002081
:1001C0005003002050030020704770477047754669
:1001D00000F02CF8AE4605006946534620F00700B3
:1001E000854618B020B5FFF7DDFFBDE820404FF091
:1001F00000064FF000074FF000084FF0000BAC4630
:10020000ACE8C009ACE8C009ACE8C009ACE8C0097A
:1002100021F007018D46704710B50446AFF300800A
:100220002046BDE81040FFF7A8BF00000048704717
:100230001000002001491820ABBEFEE72600020096
:1002400070470000FEE7000070470000012000F04A
:10025000DFB9000080B5402000F0DAF98020BDE869
:10026000804000F0D5B90000EFF3108072B600BFF7
:10027000FEE7000010B581B00022009290F8242023
:10028000012A03D10221084601B010BD4B680122AA
:10029000062B80F8242015D8026803EB8303A3F112
:1002A000050E1F23D2F834C003FA0EF40B682CEAB3
:1002B000040C03FA0EF444EA0C045463092B17D916
:1002C00037E000BF02680C2B20D803EB8303A3F1B7
:1002D00023041F23D2F830C003FA04FE0B682CEA73
:1002E0000E0C03FA04F444EA0C041463092B20D81E
:1002F000D2F810C003EB4303072489689C402CEA22
:100300000404994021431161002136E003EB83038B
:10031000A3F141041F23D2F82CC003FA04FE0B689A
:100320002CEA0E0C03FA04F444EA0C04D462092B00
:10033000DED903EB4304D2F80CC0A4F11E0E07244F
:10034000896804FA0EF42CEA040401FA0EF1214340
:1003500023F00104102CD1600ED142F20841C4F206
:100360000101A1F10804A2420ED0816A41F02001EE
:100370008162012101E000BF0021002280F82420D9
:10038000084601B010BD00BF0A68120230D40A68E6
:10039000102B42F400020A602CD140F20801C2F294
:1003A000000109684DF68362C4F21B32A1FB021200
:1003B000910C01EB8101490000910099E1B1009994
:1003C000013900910099C9B1009901390091009952
:1003D000B1B1009901390091009999B100990139A1
:1003E0000091009900294FF00001E8D1C5E700BF56
:1003F0000021C2E70021C0E70021BEE70021BCE7E1
:100400000021BAE70021B8E7B0B5002800F0A880C5
:100410000446806A20B121688868C0070BD114E0C7
:100420000020E06284F82400204600F09BF8216858
:100430008868C00709D0886820F00100886000F053
:1004400009FA21688A68D20726D1A06AC0063AD480
:10045000A06A41F2021290430230A062E069D4E93E
:10046000013240EA030C531EB3FA83F35D091346CD
:10047000B2F5807F18BF2B02207D257B01284CEA36
:10048000450030D135B3A56A45F02005A562E56A7F
:1004900045F00105E56226E0054602E08868C007F0
:1004A000D3D000F0D7F9401B21680328F6D3886821
:1004B000C007F3D0A06A40F01000A062E06A40F0EC
:1004C0000100E062A06AA06A40F01000A062012072
:1004D000B0BD00BFD4F818C04EF60005CFF6FF75CA
:1004E00005EB4C352B434D68B2F5807F25F469450B
:1004F00043EA05034B608B684FF2FD75CFF6E1755B
:1005000003EA050343EA00038B6001D0012A07D107
:1005100022690023CFF6F07303EB025201E000BF23
:100520000022CB6A23F470031A43CA62896840F63A
:10053000FE62CFF61F721140814207D10020E062B7
:10054000A16A012262F30101A162B0BDA06A40F07C
:10055000100020F00200A062E06A40F00100E062BA
:100560000120B0BD80B586B0014640F60000C4F25F
:100570000100096800F5E05291424FF00001CDE919
:10058000041101D006B080BD41F21801C4F202018D
:100590000A6842F400720A600A6802F4007201926A
:1005A000019A0A6842F004020A60096801F0040135
:1005B000019101990321CDE9021102A900F034F85B
:1005C00006B080BD80280FD140F28000C2F200004A
:1005D0008178AB230131CAB25A43520A02EB42027C
:1005E000891A8170704700BF40F28001C2F2000199
:1005F0008A78012804D1002A1EBF01204870704764
:10060000402818BF7047002A1CBF0220487070475E
:1006100040F21441C4F201010A68024214BF0860AA
:100620007047FFF7CFBF00002DE9F04F82B041F2D5
:100630000042C4F201020E680423904208BF032363
:10064000002E009300F0F68040F2004C4FF6FF7E43
:100650000022C4F2010C0124C1F2100E4FF0000A76
:100660004FF0000947E000BF012502F00C040F27FE
:10067000A7402BEA070705FA04F43C4343F8264059
:10068000D1F804B040F20C455FEACB23DCF8083027
:1006900054BF23EA080343EA0803C4F20105CCF877
:1006A00008302B685FEA8B2454BF23EA080343EA2F
:1006B00008032B605FEA8B34DCF8043054BF23EA74
:1006C000080343EA08035FEACB34CCF80430DCF8D3
:1006D00000304FF0010454BF23EA080343EA080343
:1006E000CCF800300E680AF1010A36FA0AF302F17A
:1006F000040200F09F8004FA0AF816EA080FF1D00D
:100700004B68734512DC122B56D8DFE803F0350B2B
:100710004549555555555555555555555555554DAD
:10072000510000BFD1F80C9046E000BF4FF6FF75B6
:10073000C1F22105AB420FDC0025C1F21105AB422D
:100740001AD00025C1F21205AB4215D00025C1F226
:100750002105AB4210D02FE00025C1F22205AB42AB
:100760000AD00025C1F23105AB4205D00025C1F207
:100770003205AB4220D100BF8B684BB1012B14BFB7
:10078000C0F81480C0F810804FF0080914E000BFD2
:100790004FF0040910E000BFCB6803F108090BE03B
:1007A0004FF0000908E000BFCB6803F1040903E043
:1007B000CB6803F10C0900BF13460546BAF1080FD8
:1007C00024BF203B04352E680F279F40BE4309FA03
:1007D00003F333432B60CB79DB067FF583AF41F224
:1007E0001804C4F2020423684FEA9A0643F0010396
:1007F0002360236840F6000403F001030193019B8A
:10080000ACF57E7353F826B0C4F20104A0420FD0B9
:1008100040F60044C4F20104A0423FF425AF41F287
:100820000004C4F20104009DA04208BF02251CE799
:1008300000251AE702B0BDE8F08F0000806808408C
:1008400018BF012070470000002A08BF0904016199
:100850007047000040F24C10C2F200000068704780
:1008600040F2000040F24C11C2F20000C2F200015E
:1008700000780A68104408607047000080B542F2B2
:100880000000C4F20200016841F010010160032081
:1008900000F08AF80F2000F005F800F027F800209B
:1008A00080BD000070B540F20006C2F2000640F2C2
:1008B00008013278C2F200014FF47A730968B3FB81
:1008C000F2F20446B1FBF2F1084600F0C9FB0F2C2E
:1008D0004FF0010508D838B94FF0FF30214600220B
:1008E000002500F035F87460284670BD82B041F2F2
:1008F0001800C4F202000168022241F00101016007
:10090000016801F0010101910199416841F08051B4
:100910004160406800F08050009000980420C4F2CC
:100920000100016862F31A61016002B070470000C3
:10093000002848BF704700F01F01012202FA01F1B0
:100940004EF200124009CEF2000242F82010704729
:1009500010B54EF60C5CCEF2000CDCF80030C3F3A0
:10096000022E8EF00704042C28BF0424BEF10303DA
:100970004FF0FF3E0EFA04F438BF0023A143994024
:100980000EFA03F39A43114300F00F02043A624453
:1009900009010C3200F16043B0F1FF3FC8BF03F51D
:1009A0006442117010BD00004EF60C51CEF20001F1
:1009B0000A684FF6FF031A4060F30A2242F0806093
:1009C00040F0FD70086070472DE9F04182B00446A8
:1009D000007841F21C06C007C4F202064AD0306813
:1009E00010F0805808D1306840F080503060306896
:1009F00000F080500190019847F20007C4F2000710
:100A00003868C00512D4386840F480703860FFF749
:100A100021FF05463868C00508D4FFF71BFF401BBF
:100A20006428F7D9032002B0BDE8F081706810F4A3
:100A3000407012D0616801F4407188420DD0706836
:100A400040F24042C4F24222012320F4407113607C
:100A50000023C007136071602AD17068616820F4B8
:100A600040700843B8F1000F706003D1306820F087
:100A7000805030602068810707D556F8181CA2689E
:100A800021F44041114346F8181CC00604D400204C
:100A900002B0BDE8F08100BF56F8180CE16820F400
:100AA0008000084346F8180C002002B0BDE8F08131
:100AB000FFF7D0FE054641F2883700BF7068800717
:100AC000CBD4FFF7C7FE401BB8424FF00300F5D967
:100AD000EBE700002DE9F04381B0002800F08580AD
:100AE00042F20008C4F202080446D8F800000D469D
:100AF00000F0070088420CD2D8F8000020F0070070
:100B00002843C8F80000D8F8000000F00700A84209
:100B10006BD1206841F204098107C4F2020917D59C
:100B2000410705D5D9F8001041F4E061C9F800107B
:100B3000010705D5D9F8001041F46051C9F800103B
:100B4000D9F80010A26821F0F0011143C9F8001093
:100B5000C00741D1D8F8000000F00700A8420CD926
:100B6000D8F8000020F007002843C8F80000D8F8A3
:100B7000000000F00700A84237D12068410707D5E0
:100B8000D9F80010E26821F4E0611143C9F80010BF
:100B9000000708D5D9F80000216920F4605040EA28
:100BA000C100C9F80000D9F8002002F00C000828A4
:100BB00041F20020C0F27A0050D142F2C073C2F379
:100BC0008341C0F60003595CD2033BD440F60010C9
:100BD000C0F23D00484341E0606802280AD0012885
:100BE0002AD159F8041C890308D4012001B0BDE8BA
:100BF000F08300BF59F8041C8901F6D5D9F800101C
:100C000021F003010843C9F80000FFF723FE064660
:100C100041F28837D9F80000616800F00C00B0EBB1
:100C2000810F97D0FFF716FE801BB842F2D9032040
:100C300001B0BDE8F08300BF59F8041C8907D4D582
:100C4000DCE700BFD9F8002042F2BE73C2F3404295
:100C5000C0F600039A5C4843B0FBF2F0D9F80010EC
:100C600042F2AE72C1F30311C0F60002515C40F2D1
:100C7000080220FA01F140F20400C2F2000000680C
:100C8000C2F200021160FFF70DFE002001B0BDE8C6
:100C9000F08300002DE9F04182B0002868D00446BE
:100CA000007841F20006C007C4F2020625D0706841
:100CB00000F00C0004281BD0706800F00C0008281D
:100CC00002D17068C00313D46068002800F0688106
:100CD000B0F5A02F00F07C81B0F5803F00F07C8162
:100CE000306820F480303060306820F4802076E175
:100CF0003068800301D56068D0B32078800718D5AC
:100D0000706810F00C0F07D0706800F00C00082815
:100D10006ED17068C0036BD43068800702D520693B
:100D2000012825D13068616920F0F80040EAC1004F
:100D30003060207800071FD42078400732D4E5695E
:100D400095B1706800F00C00082840F08F80012DEC
:100D50000ED07068216A00F480328A4208D1616A3C
:100D600000F47010884203D1002002B0BDE8F08189
:100D7000012002B0BDE8F081A069002862D0002007
:100D8000C4F242200121C0F88014FFF763FD05463C
:100D9000706A800700F18C80FFF75CFD401B022821
:100DA000F6D92AE1F06910F0805808D1F06940F0D6
:100DB0008050F061F06900F080500090009847F298
:100DC0000007C4F200073868C00529D4386840F429
:100DD00080703860FFF73EFD054600BF3868C005EB
:100DE0001ED4FFF737FD401B6428F7D905E100BF8B
:100DF0002069002840F20000C4F2422000F0828006
:100E000001210160FFF726FD054600BF306880071D
:100E10003FF588AFFFF71EFD401B0228F6D9ECE036
:100E2000E068002800F08080052800F09780012805
:100E300000F09880306A20F001003062306A20F0C3
:100E4000040092E00020C4F242200021C0F8801487
:100E5000FFF700FD054600BF706A80077FF56CAFA5
:100E6000FFF7F8FC401B0228F6D9C6E00027C4F2C1
:100E7000422700203866FFF7EDFC022D05460BD116
:100E80003068800140F1BE80FFF7E4FC401B02287F
:100E90004FF00300F4D968E7306880017FF564AF54
:100EA000FFF7D8FC401B02284FF00300F4D95CE7A1
:100EB00040F20800C2F20000006844F6D351C1F2CB
:100EC0006201A0FB0101480A019000BF00BF019828
:100ED000411E002801913FF42FAF00BF0198411E31
:100EE000002801913FF428AF00BF0198411E00285F
:100EF00001913FF421AF00BF0198411E00280191EC
:100F0000E4D119E700210160FFF7A4FC054600BF0A
:100F1000306880077FF50DAFFFF79CFC401B02286F
:100F20004FF00300F4D920E7306A20F0010030626E
:100F3000306A20F004003062FFF78CFC054641F275
:100F4000883700BF306A800720D5FFF783FC401B3D
:100F5000B8424FF00300F5D907E700BF306A40F010
:100F600004003062306A40F001003062FFF772FC2A
:100F7000054641F2883700BF306A800706D4FFF784
:100F800069FC401BB842F7D937E000BFB8F1000F49
:100F90007FF4D5AEF06920F08050F061CFE600BF5D
:100FA000306820F480303060306820F48020306079
:100FB000FFF750FC054600BF306880037FF59DAE0B
:100FC000FFF748FC401B64284FF00300F4D9CCE63F
:100FD000306840F480203060306840F48030306009
:100FE000FFF738FC054600BF306880033FF585AE4B
:100FF000FFF730FC401B6428F6D9032002B0BDE89F
:10100000F08100BF206AB0F5803F05D17168A26809
:1010100021F40031114371607168626A21F4741126
:1010200010430843706001203866FFF713FC044644
:10103000306880013FF598AEFFF70CFC001B0228DA
:101040004FF00300F4D990E64EF21001CEF2000109
:101050000A68042822F0040208BF04320A607047BC
:10106000411E0020B0EB116F1CBF012070474EF2F3
:101070001002CEF2000251604EF62351CEF2000172
:10108000F0230B70072190601160704770470000DB
:101090007047000010B590F83C20012A4FF0020282
:1010A00033D080F83D200268D2F804E0D2F808C0BE
:1010B0000C682EF07003234340F2FF74C4F2000466
:1010C000A24253600ADCB2F1804F13D040F20043D9
:1010D000C4F200039A420DD011E000BF42F6004373
:1010E000C4F201039A4205D040F60003C4F20003A3
:1010F0009A4204D149682CF0800319439160012180
:10110000002280F83D1080F83C20104610BD000001
:10111000002804BF0120704710B5044690F83D0038
:1011200028B9002084F83C00204600F067F802202F
:1011300084F83D00206840F2FF730268C4F20003A7
:1011400042F6004C9842C4F2010C15DCB0F1804F1D
:101150001AD040F20041C4F20001884214D09842F3
:1011600018DCB0F1804F1DD040F20041C4F2000104
:10117000884217D01AE000BF604505D040F6000154
:10118000C4F200018842EAD1A16822F070020A4349
:101190009842E6DD604505D040F60001C4F200014A
:1011A000884203D1216922F440720A43A36922F0E4
:1011B0008001D4F804E0E268194360450160C2622E
:1011C000C0F828E002D16169CCF8301001214161FA
:1011D000002084F8461084F83E1084F83F1084F80C
:1011E000401084F8411084F8421084F8431084F8C9
:1011F000441084F8451084F83D1010BD10B582B03D
:101200000068B0F1804F17D042F60041C4F20101EE
:1012100088422BD141F21800C4F20200016800227A
:1012200041F4006101600068022100F40060019057
:1012300001981920192410E041F21800C4F20200AC
:101240004168002241F0010141604068002100F046
:101250000100009000981C201C24FFF779FB204619
:1012600002B0BDE81040FFF763BB00BF02B010BD85
:1012700090F83D1001291CBF01207047022180F821
:101280003D10006840F2FF72C168C4F20002904253
:1012900041F00101C16009DCB0F1804F12D040F291
:1012A0000041C4F2000188420CD012E042F6004135
:1012B000C4F20101884205D040F60001C4F20001E9
:1012C000884206D1816801F00701062904BF002089
:1012D0007047016841F00101016000207047000083
:1012E00080B590F83C20012A4FF0020200F0C28045
:1012F00080F83D20D0F800C04FF67772DCF8083057
:1013000023EA0202CCF808200B684F2B28DC1F2BA5
:1013100044DD202B45D0302B43D0402B40F0AC8017
:10132000D1F804E0C968DCF82030DCF8202022F095
:101330000102CCF82020DCF8182022F0F00242EA6A
:10134000011123F00A0242EA0E02CCF81810CCF880
:101350002020DCF8081041F0470121F0300180E046
:101360006F2B27DDB3F5005F48D0B3F5805F7AD0EF
:10137000702B40F08180D1E901E3C968DCF80820D6
:1013800043EA0E0322F47F4243EA01211143CCF8E1
:101390000810DCF8081041F0770162E00BB1102B67
:1013A0006AD1DCF8081021F07001194341F00701FF
:1013B00057E000BF502B35D0602B5DD1D1F804E051
:1013C000C968DCF82030DCF8202022F01002CCF8CC
:1013D0002020DCF8182022F4704242EA013123F088
:1013E000A00242EA0E12CCF81810CCF82020DCF84B
:1013F000081041F0670121F0100132E0D1E901E36A
:10140000C968DCF8082043EA0E0322F47F4243EA6D
:1014100001211143CCF80810DCF8081041F4804198
:101420001FE000BFD1F804E0C968DCF82030DCF828
:10143000202022F00102CCF82020DCF8182022F035
:10144000F00242EA011123F00A0242EA0E02CCF84D
:101450001810CCF82020DCF8081041F0570121F0DA
:101460002001CCF808100022012180F83D10002155
:1014700080F83C10104680BD0122F5E7704700005F
:1014800010B5016804460869800744BFC8685FEA70
:10149000807039D40869400744BFC8685FEA40706B
:1014A0003ED40869000744BFC8685FEA007045D4AD
:1014B0000869C00644BFC8685FEAC0604AD40869CA
:1014C000C0071CBFC8685FEAC07051D10869000638
:1014D00044BFC8685FEA006052D40869400644BF50
:1014E000C8685FEA406053D40869800646BFC86890
:1014F0005FEA806010BD6FF0200220460A61BDE8FF
:101500001040FFF7C5BD00BF6FF002000861012069
:1015100020778869800743D02046FFF7AFFF45E07A
:101520006FF00400086102202077886910F4407F82
:1015300040D02046FFF7A2FF42E000BF6FF0080056
:10154000086104202077C86980073DD02046FFF756
:1015500095FF3FE06FF01000086108202077C86910
:1015600010F4407F3AD02046FFF788FF3CE000BFF0
:101570006FF001000861204600F03EF82168A5E701
:101580006FF0800008612046FFF780FD2168A4E726
:101590006FF040000861204600F048F82168A3E79A
:1015A000204600F025F8204600F024F821680020AD
:1015B00020776FE7204600F01BF8204600F01AF86D
:1015C0002168002020776CE7204600F011F82046C3
:1015D00000F010F821680020207769E7204600F02D
:1015E00007F8204600F006F821680020207766E71B
:1015F000704700007047000040F20411C2F2000181
:10160000884218BF704780B500F0D0FA40F28002DF
:10161000C2F20002D078013000F00303D11809793A
:10162000581CD370BDE8804000F012BF7047000026
:10163000FEE70000B0B584B040F28C0042F20041F9
:10164000C2F20000C4F2010100244FF4602201251F
:1016500004730475C261C0E9001484600561FEF77B
:10166000D3FE002818BFFEF7FFFD40F28C00C2F247
:10167000000001A9CDE901450394FEF7FBFD002818
:1016800018BFFEF7F1FD04B0B0BD00002DE9F04F2A
:1016900085B041F21800C4F20200016840F600492A
:1016A00041F0100101600168C4F2010901F010016C
:1016B00001910199016809F5806741F020010160FD
:1016C0000168012201F020010191019901684FF4A4
:1016D000005541F00401016001684FF0010801F07C
:1016E000040101910199016841F00801016000685D
:1016F0004FF4005100F00800019001983846FFF7C0
:10170000A3F8A9F58066304648F23C01002248F271
:101710003C0BFFF799F848464FF2F8310022FFF7EB
:1017200093F8CDE9015801AD4FF0030A3846294638
:10173000CDF80C80CDF810A0FEF776FF02273046DA
:101740002946CDE901B8CDE9037AFEF76DFFC02047
:1017500000240190C1F2110430462946CDE9024728
:10176000FEF762FF48462946CDE901840397FEF75C
:101770005BFF4BF2F830CDE9010848462946CDE938
:10178000037AFEF751FF4FF4804001901120029040
:101790000020CDE9030A48462946FEF745FF06200A
:1017A00001210022FFF7D4F80620FFF7C1F8172027
:1017B00001210022FFF7CCF81720FFF7B9F805B098
:1017C000BDE8F08F80B586B040F2BC0042F6004222
:1017D0000021C2F20000C4F2010241F61F4341F2AF
:1017E000873C0591CDE90311CDE90011C0E9002343
:1017F000C0E9021CC0E904118161FFF789FC0028DF
:1018000018BFFEF731FD4FF48050029040F2BC004B
:10181000C2F2000002A9FFF763FD002818BFFEF71F
:1018200023FD40F2BC00C2F200006946FFF732FC23
:10183000002818BFFEF718FD06B080BD80B586B041
:1018400040F204100021C2F200004FF08042472312
:1018500040F6AB5C0591CDE90311CDE90011C0E97B
:101860000023C0E9021C01618161FFF751FC0028DF
:1018700018BFFEF7F9FC4FF48050029040F20410BC
:10188000C2F2000002A9FFF72BFD002818BFFEF7E7
:10189000EBFC40F20410C2F200006946FFF7FAFBCD
:1018A000002818BFFEF7E0FC06B080BDFEE7000090
:1018B000FEE700007047000070470000FEF7D0BF51
:1018C0007047000080B540F2BC00C2F20000FFF794
:1018D000D7FD40F28000C2F200000178B1FA81F138
:1018E0004909017080BD000040F20410C2F20000FE
:1018F000FFF7C6BDFEE7000010B504460420FFF761
:10190000A3FB40F28800C2F20000046010BD00009A
:101910002DE9F04148F689024243130D1F01A7EB60
:10192000125240F28807C2F200074EF21801D7F8AF
:1019300000C0CEF200011E28A0EB42084ED347F2B1
:1019400030500CFB00F213F00304A3F1010E42D05F
:1019500051F8045C0868002608E000BF0644F61B46
:10196000B84298BF2E44964238460DD20F68B8420E
:10197000F4D10F68B842F1D10F68B842EED10F68C8
:10198000B842F3D0EAE700BF012C05D1013BBEF11C
:10199000030F23D370E000BF51F8045C0F680026EA
:1019A00008E000BF3E44361A874298BF2E44964254
:1019B00007460DD208688742F4D108688742F1D102
:1019C00008688742EED108688742F3D0EAE700BF93
:1019D000022C2DD1023BBEF1030F4DD25FEA08402D
:1019E00008BFBDE8F0814FF47A7008FB00F082B2C6
:1019F00051F8040C0E680CFB02F2002308E000BF53
:101A00003344DB1BBE4298BF034493423E460DD293
:101A10000F68BE42F4D10F68BE42F1D10F68BE42DA
:101A2000EED10F68BE42F3D0EAE700BFBDE8F08117
:101A300051F8044C0E68002508E000BF35442D1A0B
:101A4000864298BF2544954206460DD208688642D4
:101A5000F4D108688642F1D108688642EED1086860
:101A60008642F3D0EAE700BF033BBEF1030FB5D3D4
:101A700002E000BF043BB1D051F8045C0F680026BF
:101A800008E000BF3E44361A874298BF2E44964273
:101A900007460DD208688742F4D108688742F1D121
:101AA00008688742EED108688742F3D0EAE700BFB2
:101AB00051F8045C0F68002608E000BF3E44361A67
:101AC000874298BF2E44964207460DD20868874247
:101AD000F4D108688742F1D108688742EED10868DE
:101AE0008742F3D0EAE700BF51F8045C0F68002694
:101AF00008E000BF3E44361A874298BF2E44964203
:101B000007460DD208688742F4D108688742F1D1B0
:101B100008688742EED108688742F3D0EAE700BF41
:101B200051F8045C0F68002608E000BF3E44361AF6
:101B3000874298BF2E44964207469BD20868874248
:101B4000F4D108688742F1D108688742EED108686D
:101B50008742F3D0EAE7000080B54EF2180140F268
:101B60008802CEF20001C2F2000251F804CC1268E1
:101B7000002302FB00FE08680AE000BF03449B1A32
:101B8000904298BF63447345104628BF80BD00BF94
:101B90000A689042F2D10A689042EFD10A689042F6
:101BA000ECD10A689042F3D0E8E7000010B581203C
:101BB00000F05CF840F27004C2F200042070832050
:101BC00000F054F86070852000F050F8A070872075
:101BD00000F04CF8E070892000F048F820718B206C
:101BE00000F044F860718D2000F040F821786278B0
:101BF0000B0903EB830301F00F0101EB4301A17318
:101C0000C2F3021194F802E001EB810102F00F022D
:101C100002EB410161734FEA1E1194F803C001EB1E
:101C200081010EF00F0202EB410121734FEA1C11FA
:101C300001EB81010CF00F0202EB41012279E1720C
:101C4000110901EB810102F00F0202EB4101A172C7
:101C50000109A07101EB810100F00F00627900EB36
:101C6000410000F5FA60E273208110BD2DE9F04FCC
:101C700081B040F60044C4F20104054620464FF40A
:101C800000410022FEF7E0FD20464FF40051002203
:101C9000FEF7DAFD0320FFF75FFF20464FF4004117
:101CA0000122FEF7D1FD0320FFF756FF284600F082
:101CB0000FF90220FFF750FF0220FFF74DFF2046EB
:101CC0004FF400510122FEF7BFFD0420FFF744FF4F
:101CD00020464FF400510022FEF7B6FD0E20FFF71C
:101CE0003BFF20464FF48041FEF7A8FD0546002843
:101CF0004FF0020018BF0125FFF72EFF20464FF4DA
:101D000000510122FEF7A0FD0420FFF725FF204629
:101D10004FF400510022FEF797FD0E20FFF71CFF45
:101D200020464FF48041FEF789FD80460220FFF7F0
:101D300013FF20464FF400510122FEF785FD0420D9
:101D4000FFF70AFF20464FF400510022FEF77CFD0A
:101D50000E20FFF701FF20464FF48041FEF76EFD95
:101D600081460220FFF7F8FE20464FF40051012281
:101D7000FEF76AFD0420FFF7EFFE20464FF4005106
:101D80000022FEF761FD0E20FFF7E6FE20464FF42D
:101D90008041FEF753FD82460220FFF7DDFE20461C
:101DA0004FF400510122FEF74FFD0420FFF7D4FE4F
:101DB00020464FF400510022FEF746FD0E20FFF7AB
:101DC000CBFE20464FF48041FEF738FD83460220CB
:101DD000FFF7C2FE20464FF400510122FEF734FD0A
:101DE0000420FFF7B9FE20464FF400510022FEF711
:101DF0002BFD0E20FFF7B0FE20464FF48041FEF78A
:101E00001DFD06460220FFF7A7FE20464FF40051B5
:101E10000122FEF719FD0420FFF79EFE20464FF435
:101E200000510022FEF710FD0E20FFF795FE204620
:101E30004FF48041FEF702FD07460220FFF78CFEBB
:101E4000B8F1000F18BF0235B9F1000F18BF043503
:101E5000BAF1000F18BF0835BBF1000F18BF45F0ED
:101E60001005002E18BF45F0200520464FF4005104
:101E70000122002F18BF45F04005FEF7E5FC0420C5
:101E8000FFF76AFE20464FF400510022FEF7DCFC0B
:101E90000E20FFF761FE20464FF48041FEF7CEFC96
:101EA00000284FF0020018BF45F08005FFF754FEF0
:101EB00020464FF400410022FEF7C6FC20464FF4B6
:101EC00080410022FEF7C0FCE8B201B0BDE8F08F0F
:101ED000B0B584B041F21801C4F202010A680446A8
:101EE00042F008020A60096840F6004501F0080067
:101EF000009000984FF48040009003200390012050
:101F0000C4F20105019069462846FEF78DFB28467C
:101F10004FF480410022FEF797FC28464FF4005111
:101F20000022FEF791FC28464FF400510022FEF7F4
:101F30008BFC04F0010228464FF48041FEF784FC3C
:101F400028464FF400510122FEF77EFC28464FF44C
:101F500000510022FEF778FCC4F3400228464FF4FB
:101F60008041FEF771FC28464FF400510122FEF734
:101F70006BFC28464FF400510022FEF765FCC4F3C9
:101F8000800228464FF48041FEF75EFC28464FF45D
:101F900000510122FEF758FC28464FF40051002260
:101FA000FEF752FCC4F3C00228464FF48041FEF70E
:101FB0004BFC28464FF400510122FEF745FC284611
:101FC0004FF400510022FEF73FFCC4F300122846F4
:101FD0004FF48041FEF738FC28464FF400510122AF
:101FE000FEF732FC28464FF400510022FEF72CFC8D
:101FF000C4F3401228464FF48041FEF725FC2846E2
:102000004FF400510122FEF71FFC28464FF4005107
:102010000022FEF719FCC4F3801228464FF48041D9
:10202000FEF712FC28464FF400510122FEF70CFC8B
:1020300028464FF400510022FEF706FCE20928462C
:102040004FF48041FEF700FC28464FF40051012276
:10205000FEF7FAFB04B0B0BD70B546F26762C6F297
:10206000666280FB023681FB0223B21002EBD6725D
:1020700002EB8206A0EB460000EB0215981000EB85
:10208000D37000EB800240F60044A1EB4201C4F2A1
:10209000010401EB001620464FF400410022FEF738
:1020A000D3FB20464FF400510022FEF7CDFB012068
:1020B000FFF752FD20464FF400410122FEF7C4FB1A
:1020C0000220FFF749FD8E20FFF702FF0020FFF7F7
:1020D000FFFE20464FF400410022FEF7B5FB2046EC
:1020E0004FF400510022FEF7AFFB0220FFF734FD52
:1020F00020464FF400410022FEF7A6FB20464FF495
:1021000000510022FEF7A0FB0120FFF725FD20462D
:102110004FF400410122FEF797FB0220FFF71CFD60
:102120008220FFF7D5FEF0B2FFF7D2FE20464FF433
:1021300000410022FEF788FB20464FF400510022A8
:10214000FEF782FB0220FFF707FD20464FF4004117
:102150000022FEF779FB20464FF400510022FEF7E3
:1021600073FB0120FFF7F8FC20464FF400410122E9
:10217000FEF76AFB0220FFF7EFFC8420FFF7A8FEC2
:10218000E8B2FFF7A5FE20464FF400410022FEF71B
:102190005BFB20464FF400510022FEF755FB022066
:1021A000FFF7DAFC20464FF400410022FEF74CFB1B
:1021B00020464FF400510022FEF746FB0120FFF7B6
:1021C000CBFC20464FF400410122FEF73DFB0220EC
:1021D000FFF7C2FC8E20FFF77BFE8020FFF778FE22
:1021E00020464FF400410022FEF72EFB20464FF41C
:1021F00000510022FEF728FB0220BDE87040FFF7E7
:10220000ABBC000094B0FEF739FB00240120CDE9FF
:102210000F44CDE90D440A900E904FF4E0104FF4B6
:102220008031022513900AA80494CDE90244CDE937
:102230000B14CDE91151FEF72DFD28B1EFF31080FD
:1022400072B600BFFEE700BF0F20CDE905054FF4D1
:102250008060CDE9080405A802210794FEF73AFC46
:1022600020B1EFF3108072B6FEE700BF02200190AC
:102270004FF40040039001A8FEF7A6FB20B1EFF356
:10228000108072B6FEE700BFFFF700FAFFF7D2F941
:10229000FFF798FAFFF7D2FA4820FFF72DFB052049
:1022A000FFF736FBFFF782FC40F27804C2F200042D
:1022B00065794FF0CD08E9B201FB08F12079CA0A2F
:1022C00040F280064FF0300A02EB8202C2F20006B2
:1022D0000AEBD121A5EB4202B171C1B242F030024A
:1022E00001FB08F1F271CA0A02EB8202A0EB420084
:1022F00040F0300070710AEBD12030710520FFF7FB
:1023000007FB40F2BC00C2F20000FEF7B1FF40F252
:102310000410C2F20000FEF7ABFF48F6890900275F
:102320004AF6AB2B0BE000BF6079411E002808BFC6
:102330003B21617120797770C9B2FFF78DFEB078CB
:10234000022827D001283DD00028F8D16079E9B2D1
:102350008142F4D0C1B201FB08F1CA0A02EB820249
:10236000A0EB420242F03002F27122790AEBD12155
:10237000B171D1B201FB08F1CB0A03EB8303A2EBED
:10238000430242F030020AEBD121727131710546ED
:10239000D5E700BF307888B36079C1B201FB08F19E
:1023A000CA0A02EB8202A0EB420040F03000F0715A
:1023B0000AEBD1207178B071012925D00229B3D060
:1023C0006179B7E7307858B32079C1B201FB08F1E1
:1023D000CA0A02EB8202A0EB420040F030007071AA
:1023E0000AEBD1207178307101291FD0022929D13F
:1023F0002179481E002908BF172020E00020F07135
:102400007178B0710129D9D16079013000FB09F1EF
:102410004A0D1201A2EB5151A0EB810189E700BFE7
:1024200000207071717830710129DFD1207901307D
:1024300000FB0BF1090D01EB4101A0EBC100207184
:1024400001E000BF207961797770C0B274E70000C5
:102450002DE9F04F81B00446013840F600480D46A2
:102460000328C4F201081BD8DFE800F0025A8EAA44
:10247000404620210022FEF7E7F9404608210122CC
:102480000124FEF7E1F9404610210122FEF7DCF9B4
:10249000A8F580604FF400410122FEF7D5F95AE01B
:1024A000404620210122FEF7CFF9404608210122B3
:1024B000FEF7CAF9404610210122FEF7C5F9A8F53A
:1024C00080604FF400410122FEF7BEF940464021F2
:1024D0000122FEF7B9F90120FFF71AFA022C00F2E7
:1024E0008E80A5F13000C1B2172941D242F2977611
:1024F00042F2807242F2697342F2527742F23B75C5
:1025000042F22471C0F60006C0F60002C0F60003D5
:10251000C0F60007C0F60005C0F600018CE000BF61
:10252000404610210022FEF78FF940460821012283
:10253000FEF78AF9A8F580604FF400410122FEF70A
:1025400083F9404620210122FEF77EF940F2800007
:10255000C2F200000478404640212246FEF774F99A
:102560000120FFF7D5F9A5F13000C1B21729BDD37D
:1025700001220127012401264FF0010B4FF0010930
:102580004FF0010A70E000BF404608210022FEF72C
:102590005BF9A8F580604FF400410122FEF754F981
:1025A000404610210122FEF74FF94046202101222A
:1025B000FEF74AF940F28000C2F20000047816E00B
:1025C000A8F580604FF400410022FEF73DF9404637
:1025D000082101220124FEF737F94046102101228B
:1025E000FEF732F9404620210122FEF72DF9404640
:1025F00040212246FEF728F90120FFF789F9A5F1CD
:102600003000C1B2162925D842F2527642F23B720E
:1026100042F2247342F2977742F2807542F2697176
:10262000C0F60006C0F60002C0F60003C0F60007C0
:10263000C0F60005C0F60001C0B20FF2D00C16F8CB
:10264000009012F800B01E5C3C5C2F5C0A5C1CF829
:1026500000A009E001220127012401264FF0010B0F
:102660004FF001094FF0010AA8F5806528461021B6
:10267000FEF7EAF8284620213A46FEF7E5F84046FC
:1026800080212246FEF7E0F840464FF48071324642
:10269000FEF7DAF840464FF400715A46FEF7D4F8D8
:1026A000284608214A46FEF7CFF82846042152461C
:1026B000FEF7CAF80120FFF72BF928461021012266
:1026C000FEF7C2F8284620210122FEF7BDF8404659
:1026D00080210122FEF7B8F840464FF480710122B4
:1026E000FEF7B2F840464FF400710122FEF7ACF855
:1026F000284608210122FEF7A7F8284604210122D6
:1027000001B0BDE8F04FFEF79FB800BF0101000027
:1027100000000001000001010101010101000101AF
:1027200001000000000100000100000000000101A4
:102730000101010101000100010000000000000092
:10274000010100000001010101010101000101017D
:102750000101000001000000000000000101010172
:10276000010101000101010101000100000100005F
:10277000010000010101010101010101000100014D
:10278000000100010101000100010101010101013D
:102790000100010001000000010101000000010032
:1027A0000001010101010101000100010000000020
:1027B00000000000000001020304060708090102EE
:1027C00002030405060708090A0B0C0D0E0F101072
:1027D000F027000800000020100000002801000879
:1027E00000280008100000204007000044010008F5
:1027F00001000000100000000024F40000000000B0
:04000005080000ED02
:00000001FF
